{
  "contractName": "Auction",
  "abi": [
    {
      "inputs": [],
      "stateMutability": "nonpayable",
      "type": "constructor"
    },
    {
      "inputs": [],
      "name": "highestBid",
      "outputs": [
        {
          "internalType": "uint256",
          "name": "",
          "type": "uint256"
        }
      ],
      "stateMutability": "view",
      "type": "function",
      "constant": true
    },
    {
      "inputs": [],
      "name": "highestBidder",
      "outputs": [
        {
          "internalType": "address",
          "name": "",
          "type": "address"
        }
      ],
      "stateMutability": "view",
      "type": "function",
      "constant": true
    },
    {
      "inputs": [
        {
          "internalType": "address",
          "name": "",
          "type": "address"
        }
      ],
      "name": "userBalances",
      "outputs": [
        {
          "internalType": "uint256",
          "name": "",
          "type": "uint256"
        }
      ],
      "stateMutability": "view",
      "type": "function",
      "constant": true
    },
    {
      "inputs": [],
      "name": "bid",
      "outputs": [],
      "stateMutability": "payable",
      "type": "function",
      "payable": true
    },
    {
      "inputs": [],
      "name": "getContractBalance",
      "outputs": [
        {
          "internalType": "uint256",
          "name": "",
          "type": "uint256"
        }
      ],
      "stateMutability": "view",
      "type": "function",
      "constant": true
    },
    {
      "inputs": [],
      "name": "withdraw",
      "outputs": [],
      "stateMutability": "nonpayable",
      "type": "function"
    }
  ],
  "bytecode": "0x6080604052600060045534801561001557600080fd5b50336000806101000a81548173ffffffffffffffffffffffffffffffffffffffff021916908373ffffffffffffffffffffffffffffffffffffffff1602179055506000600381905550600060028190555060008054906101000a900473ffffffffffffffffffffffffffffffffffffffff16600160006101000a81548173ffffffffffffffffffffffffffffffffffffffff021916908373ffffffffffffffffffffffffffffffffffffffff160217905550610cbc806100d66000396000f3fe6080604052600436106100555760003560e01c80631998aeef1461005a57806326224c64146100645780633ccfd60b146100a15780636f9fb98a146100b857806391f90157146100e3578063d57bde791461010e575b600080fd5b610062610139565b005b34801561007057600080fd5b5061008b60048036038101906100869190610839565b6104bc565b6040516100989190610a2d565b60405180910390f35b3480156100ad57600080fd5b506100b66104d4565b005b3480156100c457600080fd5b506100cd6107f0565b6040516100da9190610a2d565b60405180910390f35b3480156100ef57600080fd5b506100f86107f8565b6040516101059190610952565b60405180910390f35b34801561011a57600080fd5b5061012361081e565b6040516101309190610a2d565b60405180910390f35b60008054906101000a900473ffffffffffffffffffffffffffffffffffffffff1673ffffffffffffffffffffffffffffffffffffffff163373ffffffffffffffffffffffffffffffffffffffff1614156101c8576040517f08c379a00000000000000000000000000000000000000000000000000000000081526004016101bf906109cd565b60405180910390fd5b600254341161020c576040517f08c379a0000000000000000000000000000000000000000000000000000000008152600401610203906109ad565b60405180910390fd5b600254600581905550600160009054906101000a900473ffffffffffffffffffffffffffffffffffffffff16600660006101000a81548173ffffffffffffffffffffffffffffffffffffffff021916908373ffffffffffffffffffffffffffffffffffffffff1602179055503460028190555033600160006101000a81548173ffffffffffffffffffffffffffffffffffffffff021916908373ffffffffffffffffffffffffffffffffffffffff160217905550600760003373ffffffffffffffffffffffffffffffffffffffff1673ffffffffffffffffffffffffffffffffffffffff16815260200190815260200160002054341115610476576000600760003373ffffffffffffffffffffffffffffffffffffffff1673ffffffffffffffffffffffffffffffffffffffff1681526020019081526020016000205414610475573373ffffffffffffffffffffffffffffffffffffffff166108fc600760003373ffffffffffffffffffffffffffffffffffffffff1673ffffffffffffffffffffffffffffffffffffffff168152602001908152602001600020549081150290604051600060405180830381858888f1935050505061047457600554600281905550600660009054906101000a900473ffffffffffffffffffffffffffffffffffffffff16600160006101000a81548173ffffffffffffffffffffffffffffffffffffffff021916908373ffffffffffffffffffffffffffffffffffffffff1602179055506001610473576040517f08c379a000000000000000000000000000000000000000000000000000000000815260040161046a906109ed565b60405180910390fd5b5b5b5b34600760003373ffffffffffffffffffffffffffffffffffffffff1673ffffffffffffffffffffffffffffffffffffffff16815260200190815260200160002081905550565b60076020528060005260406000206000915090505481565b600160009054906101000a900473ffffffffffffffffffffffffffffffffffffffff1673ffffffffffffffffffffffffffffffffffffffff163373ffffffffffffffffffffffffffffffffffffffff161415610565576040517f08c379a000000000000000000000000000000000000000000000000000000000815260040161055c9061098d565b60405180910390fd5b6000600760003373ffffffffffffffffffffffffffffffffffffffff1673ffffffffffffffffffffffffffffffffffffffff1681526020019081526020016000205411806105fe575060008054906101000a900473ffffffffffffffffffffffffffffffffffffffff1673ffffffffffffffffffffffffffffffffffffffff163373ffffffffffffffffffffffffffffffffffffffff16145b61063d576040517f08c379a00000000000000000000000000000000000000000000000000000000081526004016106349061096d565b60405180910390fd5b60008054906101000a900473ffffffffffffffffffffffffffffffffffffffff1673ffffffffffffffffffffffffffffffffffffffff163373ffffffffffffffffffffffffffffffffffffffff16141561069f5760025460048190555061072b565b600760003373ffffffffffffffffffffffffffffffffffffffff1673ffffffffffffffffffffffffffffffffffffffff168152602001908152602001600020546004819055506000600760003373ffffffffffffffffffffffffffffffffffffffff1673ffffffffffffffffffffffffffffffffffffffff168152602001908152602001600020819055505b3373ffffffffffffffffffffffffffffffffffffffff166108fc6004549081150290604051600060405180830381858888f193505050506107ee57600454600760003373ffffffffffffffffffffffffffffffffffffffff1673ffffffffffffffffffffffffffffffffffffffff1681526020019081526020016000208190555060016107ed576040517f08c379a00000000000000000000000000000000000000000000000000000000081526004016107e490610a0d565b60405180910390fd5b5b565b600047905090565b600160009054906101000a900473ffffffffffffffffffffffffffffffffffffffff1681565b60025481565b60008135905061083381610c6f565b92915050565b60006020828403121561084b57600080fd5b600061085984828501610824565b91505092915050565b61086b81610a59565b82525050565b600061087e602f83610a48565b915061088982610a95565b604082019050919050565b60006108a1603583610a48565b91506108ac82610ae4565b604082019050919050565b60006108c4602683610a48565b91506108cf82610b33565b604082019050919050565b60006108e7602d83610a48565b91506108f282610b82565b604082019050919050565b600061090a602f83610a48565b915061091582610bd1565b604082019050919050565b600061092d603083610a48565b915061093882610c20565b604082019050919050565b61094c81610a8b565b82525050565b60006020820190506109676000830184610862565b92915050565b6000602082019050818103600083015261098681610871565b9050919050565b600060208201905081810360008301526109a681610894565b9050919050565b600060208201905081810360008301526109c6816108b7565b9050919050565b600060208201905081810360008301526109e6816108da565b9050919050565b60006020820190508181036000830152610a06816108fd565b9050919050565b60006020820190508181036000830152610a2681610920565b9050919050565b6000602082019050610a426000830184610943565b92915050565b600082825260208201905092915050565b6000610a6482610a6b565b9050919050565b600073ffffffffffffffffffffffffffffffffffffffff82169050919050565b6000819050919050565b7f54686520616d6f756e7420746f2072657475726e206d7573742062652067726560008201527f61746572207468616e207a65726f210000000000000000000000000000000000602082015250565b7f596f752063616e206e6f7420626520746865206869676865737442696464657260008201527f20696e206f7264657220746f2070726f63656564210000000000000000000000602082015250565b7f546865726520697320616c726561647920612073616d65206f7220686967686560008201527f7220626964210000000000000000000000000000000000000000000000000000602082015250565b7f596f752063616e206e6f7420626520746865206f776e657220696e206f72646560008201527f7220746f2070726f636565642100000000000000000000000000000000000000602082015250565b7f596f752068616420616e20756e7375636365737366756c2063616c6c206f662060008201527f6269742c2074727920616761696e210000000000000000000000000000000000602082015250565b7f596f752068616420616e20756e7375636365737366756c2063616c6c206f662060008201527f73656e642c2074727920616761696e2100000000000000000000000000000000602082015250565b610c7881610a59565b8114610c8357600080fd5b5056fea26469706673582212209fcaaaf9e0cd802c2d2aad8bfb809e01781bcfad6d349076687b28f2842637af64736f6c63430008030033",
  "immutableReferences": {},
  "source": "// SPDX-License-Identifier: GPL-3.0\n\npragma solidity >= 0.7.0 <= 0.8.3;\n\ncontract Auction {\n    address payable owner; // contractor\n    address public highestBidder; // The highest bidder's address\n    uint public highestBid; // The amount of the highest bid\n    uint end;\n    uint backup = 0;\n    uint backupBid;\n    address backupBidder;\n    \n    mapping(address => uint) public userBalances; // mapping for the amount to return\n\n    \n    modifier notOwner(){\n        require(msg.sender !=owner ,\"You can not be the owner in order to proceed!\");\n        _;\n    }\n    \n    modifier nothighestBidder(){\n        require(msg.sender != highestBidder,\"You can not be the highestBidder in order to proceed!\");\n        _;\n    }\n    \n    \n    constructor() {\n        // contractor\n        owner = payable(msg.sender);\n        end = 0;\n        // Initialize highest bid and the bidder's address\n        highestBid = 0;\n        highestBidder = owner;\n    }\n    \n    function bid() public payable notOwner{\n        // Function to process bid\n        // Check if the bid is greater than the current highest bid\n        require(msg.value > highestBid, \"There is already a same or higher bid!\");\n        // Update status variable and the amount to return\n        backupBid = highestBid;\n        backupBidder = highestBidder;\n        highestBid = msg.value;\n        highestBidder = msg.sender;\n        \n        if(msg.value > userBalances[msg.sender]){\n            if(userBalances[msg.sender] != 0){\n                if (!(payable(msg.sender)).send(userBalances[msg.sender])){//if we have an unsuccessful call of send, don't count him as the highestBidder\n                    highestBid = backupBid;\n                    highestBidder = backupBidder;\n                    require(true, \"You had an unsuccessful call of bit, try again!\");\n                }\n            }\n        }\n        \n        userBalances[msg.sender] = msg.value;\n    }\n    \n    function getContractBalance() public view returns(uint){\n        //Function to contract's balance\n        return(address(this).balance);\n    }\n    \n    function withdraw() public nothighestBidder{\n        // Function to withdraw the amount of bid to return\n        // Check if the amount to return is greater than zero\n        require((userBalances[msg.sender] > 0 || msg.sender == owner), \"The amount to return must be greater than zero!\");\n        \n        // Update status variable and return bid\n        if (msg.sender == owner){\n            backup = highestBid;\n        }\n        else{\n            backup = userBalances[msg.sender];\n            userBalances[msg.sender] = 0;\n        }\n        if (!(payable(msg.sender)).send(backup)) {//if we have an unsuccessful call of send, don't lose the money\n            userBalances[msg.sender] = backup;\n            require(true, \"You had an unsuccessful call of send, try again!\");\n        }\n    }\n}\n",
  "sourcePath": "/home/vasia/Documents/auction-app/contracts/Auction.sol",
  "compiler": {
    "name": "solc",
    "version": "0.8.3+commit.8d00100c.Emscripten.clang"
  },
  "schemaVersion": "3.4.1",
  "updatedAt": "2021-05-23T11:09:20.287Z",
  "networkType": "ethereum",
  "devdoc": {
    "kind": "dev",
    "methods": {},
    "version": 1
  },
  "userdoc": {
    "kind": "user",
    "methods": {},
    "version": 1
  }
}